{
  "contractName": "CoinFlip",
  "abi": [
    {
      "inputs": [],
      "payable": false,
      "stateMutability": "nonpayable",
      "type": "constructor"
    },
    {
      "anonymous": false,
      "inputs": [
        {
          "indexed": false,
          "internalType": "string",
          "name": "_msg",
          "type": "string"
        },
        {
          "indexed": false,
          "internalType": "address",
          "name": "user",
          "type": "address"
        },
        {
          "indexed": false,
          "internalType": "uint256",
          "name": "amount",
          "type": "uint256"
        },
        {
          "indexed": false,
          "internalType": "bool",
          "name": "winner",
          "type": "bool"
        }
      ],
      "name": "Status",
      "type": "event"
    },
    {
      "constant": true,
      "inputs": [],
      "name": "MaxAmountToBet",
      "outputs": [
        {
          "internalType": "uint256",
          "name": "",
          "type": "uint256"
        }
      ],
      "payable": false,
      "stateMutability": "view",
      "type": "function"
    },
    {
      "constant": false,
      "inputs": [],
      "name": "Play",
      "outputs": [],
      "payable": true,
      "stateMutability": "payable",
      "type": "function"
    },
    {
      "constant": true,
      "inputs": [],
      "name": "getGameCount",
      "outputs": [
        {
          "internalType": "uint256",
          "name": "",
          "type": "uint256"
        }
      ],
      "payable": false,
      "stateMutability": "view",
      "type": "function"
    },
    {
      "constant": true,
      "inputs": [
        {
          "internalType": "uint256",
          "name": "index",
          "type": "uint256"
        }
      ],
      "name": "getGameEntry",
      "outputs": [
        {
          "internalType": "address",
          "name": "addr",
          "type": "address"
        },
        {
          "internalType": "uint256",
          "name": "blocknumber",
          "type": "uint256"
        },
        {
          "internalType": "uint256",
          "name": "blocktimestamp",
          "type": "uint256"
        },
        {
          "internalType": "uint256",
          "name": "bet",
          "type": "uint256"
        },
        {
          "internalType": "uint256",
          "name": "prize",
          "type": "uint256"
        },
        {
          "internalType": "bool",
          "name": "winner",
          "type": "bool"
        }
      ],
      "payable": false,
      "stateMutability": "view",
      "type": "function"
    },
    {
      "constant": false,
      "inputs": [
        {
          "internalType": "uint256",
          "name": "amount",
          "type": "uint256"
        }
      ],
      "name": "depositFunds",
      "outputs": [],
      "payable": true,
      "stateMutability": "payable",
      "type": "function"
    },
    {
      "constant": false,
      "inputs": [
        {
          "internalType": "uint256",
          "name": "amount",
          "type": "uint256"
        }
      ],
      "name": "withdrawFunds",
      "outputs": [],
      "payable": false,
      "stateMutability": "nonpayable",
      "type": "function"
    },
    {
      "constant": false,
      "inputs": [
        {
          "internalType": "uint256",
          "name": "amount",
          "type": "uint256"
        }
      ],
      "name": "setMaxAmountToBet",
      "outputs": [
        {
          "internalType": "uint256",
          "name": "",
          "type": "uint256"
        }
      ],
      "payable": false,
      "stateMutability": "nonpayable",
      "type": "function"
    },
    {
      "constant": true,
      "inputs": [
        {
          "internalType": "uint256",
          "name": "amount",
          "type": "uint256"
        }
      ],
      "name": "getMaxAmountToBet",
      "outputs": [
        {
          "internalType": "uint256",
          "name": "",
          "type": "uint256"
        }
      ],
      "payable": false,
      "stateMutability": "view",
      "type": "function"
    },
    {
      "constant": false,
      "inputs": [],
      "name": "Kill",
      "outputs": [],
      "payable": false,
      "stateMutability": "nonpayable",
      "type": "function"
    }
  ],
  "bytecode": "0x6080604052605a6001556702c68af0bb14000060025534801561002157600080fd5b50336000806101000a81548173ffffffffffffffffffffffffffffffffffffffff021916908373ffffffffffffffffffffffffffffffffffffffff1602179055506111a4806100716000396000f3fe6080604052600436106100865760003560e01c80638b1674c3116100595780638b1674c3146101a0578063be26733c146101cb578063c40efa7a146101e2578063d89cacdc14610231578063e87c0ee61461028057610086565b80630e2dce691461008b578063155dd5ee146100955780633b76594d146100d05780637f9ff2f8146100fe575b600080fd5b6100936102ab565b005b3480156100a157600080fd5b506100ce600480360360208110156100b857600080fd5b8101908080359060200190929190505050610b2d565b005b6100fc600480360360208110156100e657600080fd5b8101908080359060200190929190505050610c96565b005b34801561010a57600080fd5b506101376004803603602081101561012157600080fd5b8101908080359060200190929190505050610dff565b604051808773ffffffffffffffffffffffffffffffffffffffff1673ffffffffffffffffffffffffffffffffffffffff16815260200186815260200185815260200184815260200183815260200182151515158152602001965050505050505060405180910390f35b3480156101ac57600080fd5b506101b5610f04565b6040518082815260200191505060405180910390f35b3480156101d757600080fd5b506101e0610f0a565b005b3480156101ee57600080fd5b5061021b6004803603602081101561020557600080fd5b8101908080359060200190929190505050611048565b6040518082815260200191505060405180910390f35b34801561023d57600080fd5b5061026a6004803603602081101561025457600080fd5b8101908080359060200190929190505050611054565b6040518082815260200191505060405180910390f35b34801561028c57600080fd5b506102956110c0565b6040518082815260200191505060405180910390f35b6002543411156102ba57600080fd5b6000600242816102c657fe5b0614156108b0576064600154606401816102dc57fe5b0434023073ffffffffffffffffffffffffffffffffffffffff163110156105d3573373ffffffffffffffffffffffffffffffffffffffff166108fc3073ffffffffffffffffffffffffffffffffffffffff16319081150290604051600060405180830381858888f1935050505015801561035a573d6000803e3d6000fd5b507f9661c368357045cbbedf4b4d390b315c217898ca8a158a643dc89f9c40f068843334600160405180806020018573ffffffffffffffffffffffffffffffffffffffff1673ffffffffffffffffffffffffffffffffffffffff168152602001848152602001831515151581526020018281038252606281526020018061110e6062913960800194505050505060405180910390a16040518060c001604052803373ffffffffffffffffffffffffffffffffffffffff1681526020014381526020014281526020013481526020013073ffffffffffffffffffffffffffffffffffffffff1631815260200160011515815250600460008201518160000160006101000a81548173ffffffffffffffffffffffffffffffffffffffff021916908373ffffffffffffffffffffffffffffffffffffffff1602179055506020820151816001015560408201518160020155606082015181600301556080820151816004015560a08201518160050160006101000a81548160ff02191690831515021790555090505060036004908060018154018082558091505090600182039060005260206000209060060201600090919290919091506000820160009054906101000a900473ffffffffffffffffffffffffffffffffffffffff168160000160006101000a81548173ffffffffffffffffffffffffffffffffffffffff021916908373ffffffffffffffffffffffffffffffffffffffff160217905550600182015481600101556002820154816002015560038201548160030155600482015481600401556005820160009054906101000a900460ff168160050160006101000a81548160ff0219169083151502179055505050506108ab565b600060646001546064013402816105e657fe5b0490507f9661c368357045cbbedf4b4d390b315c217898ca8a158a643dc89f9c40f068843382600160405180806020018573ffffffffffffffffffffffffffffffffffffffff1673ffffffffffffffffffffffffffffffffffffffff16815260200184815260200183151515158152602001828103825260198152602001807f436f6e67726174756c6174696f6e732c20796f752077696e210000000000000081525060200194505050505060405180910390a13373ffffffffffffffffffffffffffffffffffffffff166108fc829081150290604051600060405180830381858888f193505050501580156106e0573d6000803e3d6000fd5b506040518060c001604052803373ffffffffffffffffffffffffffffffffffffffff16815260200143815260200142815260200134815260200182815260200160011515815250600460008201518160000160006101000a81548173ffffffffffffffffffffffffffffffffffffffff021916908373ffffffffffffffffffffffffffffffffffffffff1602179055506020820151816001015560408201518160020155606082015181600301556080820151816004015560a08201518160050160006101000a81548160ff02191690831515021790555090505060036004908060018154018082558091505090600182039060005260206000209060060201600090919290919091506000820160009054906101000a900473ffffffffffffffffffffffffffffffffffffffff168160000160006101000a81548173ffffffffffffffffffffffffffffffffffffffff021916908373ffffffffffffffffffffffffffffffffffffffff160217905550600182015481600101556002820154816002015560038201548160030155600482015481600401556005820160009054906101000a900460ff168160050160006101000a81548160ff021916908315150217905550505050505b610b2b565b7f9661c368357045cbbedf4b4d390b315c217898ca8a158a643dc89f9c40f068843334600060405180806020018573ffffffffffffffffffffffffffffffffffffffff1673ffffffffffffffffffffffffffffffffffffffff16815260200184815260200183151515158152602001828103825260118152602001807f536f7272792c20796f75206c6f6f73652100000000000000000000000000000081525060200194505050505060405180910390a16040518060c001604052803373ffffffffffffffffffffffffffffffffffffffff1681526020014381526020014281526020013481526020016000815260200160001515815250600460008201518160000160006101000a81548173ffffffffffffffffffffffffffffffffffffffff021916908373ffffffffffffffffffffffffffffffffffffffff1602179055506020820151816001015560408201518160020155606082015181600301556080820151816004015560a08201518160050160006101000a81548160ff02191690831515021790555090505060036004908060018154018082558091505090600182039060005260206000209060060201600090919290919091506000820160009054906101000a900473ffffffffffffffffffffffffffffffffffffffff168160000160006101000a81548173ffffffffffffffffffffffffffffffffffffffff021916908373ffffffffffffffffffffffffffffffffffffffff160217905550600182015481600101556002820154816002015560038201548160030155600482015481600401556005820160009054906101000a900460ff168160050160006101000a81548160ff0219169083151502179055505050505b565b3373ffffffffffffffffffffffffffffffffffffffff166000809054906101000a900473ffffffffffffffffffffffffffffffffffffffff1673ffffffffffffffffffffffffffffffffffffffff1614610b8657600080fd5b6000809054906101000a900473ffffffffffffffffffffffffffffffffffffffff1673ffffffffffffffffffffffffffffffffffffffff166108fc829081150290604051600060405180830381858888f1935050505015610c93577f9661c368357045cbbedf4b4d390b315c217898ca8a158a643dc89f9c40f068843382600160405180806020018573ffffffffffffffffffffffffffffffffffffffff1673ffffffffffffffffffffffffffffffffffffffff16815260200184815260200183151515158152602001828103825260198152602001807f5573657220776974686472617720736f6d65206d6f6e6579210000000000000081525060200194505050505060405180910390a15b50565b3373ffffffffffffffffffffffffffffffffffffffff166000809054906101000a900473ffffffffffffffffffffffffffffffffffffffff1673ffffffffffffffffffffffffffffffffffffffff1614610cef57600080fd5b6000809054906101000a900473ffffffffffffffffffffffffffffffffffffffff1673ffffffffffffffffffffffffffffffffffffffff166108fc829081150290604051600060405180830381858888f1935050505015610dfc577f9661c368357045cbbedf4b4d390b315c217898ca8a158a643dc89f9c40f068843334600160405180806020018573ffffffffffffffffffffffffffffffffffffffff1673ffffffffffffffffffffffffffffffffffffffff168152602001848152602001831515151581526020018281038252601c8152602001807f5573657220686173206465706f73697420736f6d65206d6f6e6579210000000081525060200194505050505060405180910390a15b50565b60008060008060008060038781548110610e1557fe5b906000526020600020906006020160000160009054906101000a900473ffffffffffffffffffffffffffffffffffffffff1660038881548110610e5457fe5b90600052602060002090600602016001015460038981548110610e7357fe5b90600052602060002090600602016002015460038a81548110610e9257fe5b90600052602060002090600602016003015460038b81548110610eb157fe5b90600052602060002090600602016004015460038c81548110610ed057fe5b906000526020600020906006020160050160009054906101000a900460ff1695509550955095509550955091939550919395565b60025481565b3373ffffffffffffffffffffffffffffffffffffffff166000809054906101000a900473ffffffffffffffffffffffffffffffffffffffff1673ffffffffffffffffffffffffffffffffffffffff1614610f6357600080fd5b7f9661c368357045cbbedf4b4d390b315c217898ca8a158a643dc89f9c40f06884333073ffffffffffffffffffffffffffffffffffffffff1631600160405180806020018573ffffffffffffffffffffffffffffffffffffffff1673ffffffffffffffffffffffffffffffffffffffff16815260200184815260200183151515158152602001828103825260408152602001806110ce6040913960400194505050505060405180910390a16000809054906101000a900473ffffffffffffffffffffffffffffffffffffffff1673ffffffffffffffffffffffffffffffffffffffff16ff5b60006002549050919050565b60003373ffffffffffffffffffffffffffffffffffffffff166000809054906101000a900473ffffffffffffffffffffffffffffffffffffffff1673ffffffffffffffffffffffffffffffffffffffff16146110af57600080fd5b816002819055506002549050919050565b600060038054905090509056fe436f6e747261637420776173206b696c6c65642c20636f6e74726163742062616c616e63652077696c6c2062652073656e6420746f20746865206f776e657221436f6e67726174756c6174696f6e732c20796f752077696e2120536f7272792c207765206469646e2774206861766520656e6f75676874206d6f6e65792c2077652077696c6c206465706f7369742065766572797468696e67207765206861766521a265627a7a72315820117949da712caddf26657f4e68a3159a687d90bbf5a830a729f83cd083c5805364736f6c634300050c0032",
  "source": "pragma solidity 0.5.12;\r\n\r\ncontract CoinFlip {\r\n    address payable owner;\r\n    uint payPercentage = 90;\r\n\t\r\n\t// Maximum amount to bet in WEIs\r\n\tuint public MaxAmountToBet = 200000000000000000; // = 0.2 Ether\r\n\t\r\n\tstruct Game {\r\n\t\taddress addr;\r\n\t\tuint blocknumber;\r\n\t\tuint blocktimestamp;\r\n        uint bet;\r\n\t\tuint prize;\r\n        bool winner;\r\n    }\r\n\t\r\n\tGame[] lastPlayedGames;\r\n\t\r\n\tGame newGame;\r\n    \r\n    event Status(\r\n\t\tstring _msg, \r\n\t\taddress user, \r\n\t\tuint amount,\r\n\t\tbool winner\r\n\t);\r\n    \r\n    constructor () public{\r\n        owner = msg.sender;\r\n    }\r\n\r\n    modifier onlyOwner() {\r\n        if (owner != msg.sender) {\r\n            revert();\r\n        } else {\r\n            _;\r\n        }\r\n    }\r\n    \r\n    function Play() public payable {\r\n\t\t\r\n\t\tif (msg.value > MaxAmountToBet) {\r\n\t\t\trevert();\r\n\t\t} else {\r\n\t\t\tif ((block.timestamp % 2) == 0) {\r\n\t\t\t\t\r\n\t\t\t\tif (address(this).balance < (msg.value * ((100 + payPercentage) / 100))) {\r\n\t\t\t\t\t// No tenemos suficientes fondos para pagar el premio, así que transferimos todo lo que tenemos\r\n\t\t\t\t\tmsg.sender.transfer(address(this).balance);\r\n\t\t\t\t\temit Status('Congratulations, you win! Sorry, we didn\\'t have enought money, we will deposit everything we have!', msg.sender, msg.value, true);\r\n\t\t\t\t\t\r\n\t\t\t\t\tnewGame = Game({\r\n\t\t\t\t\t\taddr: msg.sender,\r\n\t\t\t\t\t\tblocknumber: block.number,\r\n\t\t\t\t\t\tblocktimestamp: block.timestamp,\r\n\t\t\t\t\t\tbet: msg.value,\r\n\t\t\t\t\t\tprize: address(this).balance,\r\n\t\t\t\t\t\twinner: true\r\n\t\t\t\t\t});\r\n\t\t\t\t\tlastPlayedGames.push(newGame);\r\n\t\t\t\t\t\r\n\t\t\t\t} else {\r\n\t\t\t\t\tuint _prize = msg.value * (100 + payPercentage) / 100;\r\n\t\t\t\t\temit Status('Congratulations, you win!', msg.sender, _prize, true);\r\n\t\t\t\t\tmsg.sender.transfer(_prize);\r\n\t\t\t\t\t\r\n\t\t\t\t\tnewGame = Game({\r\n\t\t\t\t\t\taddr: msg.sender,\r\n\t\t\t\t\t\tblocknumber: block.number,\r\n\t\t\t\t\t\tblocktimestamp: block.timestamp,\r\n\t\t\t\t\t\tbet: msg.value,\r\n\t\t\t\t\t\tprize: _prize,\r\n\t\t\t\t\t\twinner: true\r\n\t\t\t\t\t});\r\n\t\t\t\t\tlastPlayedGames.push(newGame);\r\n\t\t\t\t\t\r\n\t\t\t\t}\r\n\t\t\t} else {\r\n\t\t\t\temit Status('Sorry, you loose!', msg.sender, msg.value, false);\r\n\t\t\t\t\r\n\t\t\t\tnewGame = Game({\r\n\t\t\t\t\taddr: msg.sender,\r\n\t\t\t\t\tblocknumber: block.number,\r\n\t\t\t\t\tblocktimestamp: block.timestamp,\r\n\t\t\t\t\tbet: msg.value,\r\n\t\t\t\t\tprize: 0,\r\n\t\t\t\t\twinner: false\r\n\t\t\t\t});\r\n\t\t\t\tlastPlayedGames.push(newGame);\r\n\t\t\t\t\r\n\t\t\t}\r\n\t\t}\r\n    }\r\n\t\r\n\tfunction getGameCount() public view returns(uint) {\r\n\t\treturn lastPlayedGames.length;\r\n\t}\r\n\r\n\tfunction getGameEntry(uint index) public view returns(address addr, uint blocknumber, uint blocktimestamp, uint bet, uint prize, bool winner) {\r\n\t\treturn (lastPlayedGames[index].addr, lastPlayedGames[index].blocknumber, lastPlayedGames[index].blocktimestamp, lastPlayedGames[index].bet, lastPlayedGames[index].prize, lastPlayedGames[index].winner);\r\n\t}\r\n\t\r\n\t\r\n\tfunction depositFunds(uint amount) public onlyOwner payable {\r\n        if (owner.send(amount)) {\r\n            emit Status('User has deposit some money!', msg.sender, msg.value, true);\r\n        }\r\n    }\r\n    \r\n\tfunction withdrawFunds(uint amount) public onlyOwner {\r\n        if (owner.send(amount)) {\r\n            emit Status('User withdraw some money!', msg.sender, amount, true);\r\n        }\r\n    }\r\n\t\r\n\tfunction setMaxAmountToBet(uint amount) public onlyOwner returns (uint) {\r\n\t\tMaxAmountToBet = amount;\r\n        return MaxAmountToBet;\r\n    }\r\n\t\r\n\tfunction getMaxAmountToBet(uint amount) public view returns (uint) {\r\n        return MaxAmountToBet;\r\n    }\r\n\t\r\n    \r\n    function Kill() public onlyOwner {\r\n        emit Status('Contract was killed, contract balance will be send to the owner!', msg.sender, address(this).balance, true);\r\n        selfdestruct(owner);\r\n    }\r\n}",
  "sourcePath": "/mnt/d/FullStack/React/solidity/solidity201/Coinflip_dapp/contracts/Coinflip.sol",
  "compiler": {
    "name": "solc",
    "version": "0.5.12+commit.7709ece9.Emscripten.clang"
  },
  "schemaVersion": "3.0.23",
  "updatedAt": "2020-10-03T22:12:04.317Z",
  "networkType": "ethereum",
  "devdoc": {
    "methods": {}
  },
  "userdoc": {
    "methods": {}
  }
}